:020000021000EC
:1040000000400020194701005547010057470100B3
:1040100000000000000000000000000000000000A0
:1040200000000000000000000000000059470100EF
:1040300000000000000000005B4701005D47010038
:104040005F4701005F470100A54A01005F4701008B
:104050005F47010000000000B94701005F47010011
:104060005F470100CD4B0100454B01005F47010058
:104070005F4701005F4701005F4701005F470100A4
:104080005F470100316001005F4701005F470100A9
:104090002D6101005F470100056001005F470100DD
:1040A0005F4701005F4701000000000000000000C2
:1040B0000000000000000000000000000000000000
:1040C00010B5064C2378002B07D1054B002B02D0EE
:1040D000044800E000BF0123237010BD942000209D
:1040E00000000000C0A8010008B5084B002B03D059
:1040F0000748084900E000BF07480368002B03D0C9
:10410000064B002B00D0984708BDC04600000000B9
:10411000C0A801009820002094200020000000008A
:10412000164B002B00D1144B9D46402292029A1A46
:10413000924600218B460F461348144A121A04F087
:1041400041F90F4B002B00D098470E4B002B00D0AD
:1041500098470020002104000D000D48002802D0DF
:104160000C4800E000BF04F067F82000290001F0CF
:1041700077F900F0D7FEC04600000800004000209C
:104180000000000000000000942000206C290020A6
:104190000000000000000000014B03607047C046B3
:1041A00078A00100034B01221A70034B00221A7001
:04A95C00C1400100F5
:040000031000471989
:00000001FF
